:020000040000FA
:10000000000000EB2E0000EB2C008FE2000C90E8CB
:1000100000A08AE000B08BE001704AE20B005AE1D8
:100020000000001A260000EB0F00BAE818E04FE2CB
:10003000010013E303F0471013FF2FE12C0200002F
:100040004C020000102052E27800B0287800A1286D
:10005000FBFFFF8A822EB0E13000B0283000A128DB
:1000600000409045004081451EFF2FE10030B0E385
:100070000040B0E30050B0E30060B0E3102052E273
:100080007800A128FCFFFF8A822EB0E13000A12871
:10009000003081451EFF2FE101C08FE21CFF2FE1E0
:1000A0001FB5059886460FBC009C02B07047000043
:1000B00001C08FE21CFF2FE130B47546AE4630BC64
:1000C000704700001A0000EB0210A0E1F1FFFFEB07
:1000D0001CC09FE50FC08CE001001CE30DE08F12F7
:1000E0000FE0A0011CFF2FE101C08FE21CFF2FE1F8
:1000F00000F050F81C0100007847C04603002DE9CD
:10010000EAFFFFEB0300BDE8290000EB0C009FE5D0
:100110000C109FE504209FE508309FE51EFF2FE1AE
:100120008800004088040040880000407047704705
:10013000704700000E50A0E11A0000EB05E0A0E1BE
:100140000050B0E10D10A0E10A30A0E10700C0E3CB
:1001500000D0A0E160D08DE220402DE9EAFFFFEB66
:100160002040BDE80060A0E30070A0E30080A0E3B1
:1001700000B0A0E30710C1E305C0A0E1C009ACE8EE
:10018000C009ACE8C009ACE8C009ACE801D0A0E106
:100190001EFF2FE110B50400C046C0462000FFF747
:1001A000ABFF10BC08BC184700009FE51EFF2FE105
:1001B0002800004001C08FE21CFF2FE101491820F8
:1001C000ABDFFEE7260002001EFF2FE10020A0E3C8
:1001D000050000EA0010A0E3000000EA011081E23F
:1001E000530F51E3FCFFFFDA012082E2000052E1ED
:1001F000F7FFFFBA1EFF2FE10000A0E358109FE5B4
:10020000140081E5FF08A0E3C014C1E1180081E5F6
:10021000100000EA0040A0E30C0000EA3C009FE56B
:10022000040190E70008A0E134109FE5140081E587
:10023000FA0FA0E3E4FFFFEB20009FE5040190E745
:100240000008A0E118109FE51C0081E5014084E250
:100250000A0054E3F0FFFFBAEDFFFFEA00C002E03E
:1002600000000040008002E0880200000000004022
:100270002800000044000000B002000028000040F8
:10028000E80400006C0000003F00000006000000D1
:100290005B0000004F000000660000006D000000E1
:1002A0007D000000070000007F0000006F000000DC
:0400000500000000F7
:00000001FF
